{
  "_format": "hh-sol-artifact-1",
  "contractName": "Dao",
  "sourceName": "contracts/Dao.sol",
  "abi": [
    {
      "inputs": [],
      "stateMutability": "nonpayable",
      "type": "constructor"
    },
    {
      "inputs": [
        {
          "internalType": "string",
          "name": "_proposalID",
          "type": "string"
        },
        {
          "internalType": "string",
          "name": "_commitData",
          "type": "string"
        },
        {
          "internalType": "uint256",
          "name": "_rewardAmount",
          "type": "uint256"
        }
      ],
      "name": "commitData",
      "outputs": [],
      "stateMutability": "payable",
      "type": "function"
    },
    {
      "inputs": [
        {
          "internalType": "string",
          "name": "_proposalId",
          "type": "string"
        },
        {
          "internalType": "string",
          "name": "_required",
          "type": "string"
        },
        {
          "internalType": "uint256",
          "name": "_maxMembers",
          "type": "uint256"
        }
      ],
      "name": "createProposal",
      "outputs": [],
      "stateMutability": "nonpayable",
      "type": "function"
    },
    {
      "inputs": [],
      "name": "getAllMembers",
      "outputs": [
        {
          "internalType": "address[]",
          "name": "",
          "type": "address[]"
        }
      ],
      "stateMutability": "view",
      "type": "function"
    },
    {
      "inputs": [
        {
          "internalType": "address",
          "name": "_memberAddr",
          "type": "address"
        },
        {
          "internalType": "string",
          "name": "_proposalId",
          "type": "string"
        }
      ],
      "name": "getCommits",
      "outputs": [
        {
          "internalType": "string[]",
          "name": "",
          "type": "string[]"
        }
      ],
      "stateMutability": "view",
      "type": "function"
    },
    {
      "inputs": [],
      "name": "getTotalMembers",
      "outputs": [
        {
          "internalType": "uint256",
          "name": "",
          "type": "uint256"
        }
      ],
      "stateMutability": "view",
      "type": "function"
    },
    {
      "inputs": [
        {
          "internalType": "string",
          "name": "_proposalID",
          "type": "string"
        }
      ],
      "name": "rewardMembers",
      "outputs": [],
      "stateMutability": "nonpayable",
      "type": "function"
    }
  ],
  "bytecode": "0x60a060405234801561001057600080fd5b5033608052608051610b8f61002d60003960005050610b8f6000f3fe6080604052600436106100655760003560e01c80637c0f6b35116100435780637c0f6b35146100e25780638f18030514610104578063a8daeb601461012157600080fd5b80630ce0ebf41461006a578063101db5cf1461008c57806349f74799146100ac575b600080fd5b34801561007657600080fd5b5061008a610085366004610572565b610134565b005b34801561009857600080fd5b5061008a6100a7366004610601565b6101d1565b3480156100b857600080fd5b506100cc6100c736600461067b565b610295565b6040516100d991906107a6565b60405180910390f35b3480156100ee57600080fd5b506100f76103ae565b6040516100d99190610823565b34801561011057600080fd5b506000546040516100d9919061083a565b61008a61012f366004610572565b61041d565b60028585604051610146929190610867565b9081526040519081900360200190206004015460ff16156101825760405162461bcd60e51b81526004016101799061087c565b60405180910390fd5b600060028686604051610196929190610867565b9081526040519081900360200190209050806101b38486836109d7565b50600180820192909255600401805460ff1916909117905550505050565b6000600283836040516101e5929190610867565b908152602001604051809103902090506000600180549050826003015461020c9190610ac7565b905060005b60015481101561028e576001818154811061022e5761022e610adb565b600091825260208220015460405173ffffffffffffffffffffffffffffffffffffffff9091169184156108fc02918591818181858888f1935050505015801561027b573d6000803e3d6000fd5b508061028681610af1565b915050610211565b5050505050565b6060600283836040516102a9929190610867565b90815260408051918290036020908101832073ffffffffffffffffffffffffffffffffffffffff8816600090815260029091018252828120805480840286018401909452838552929184015b828210156103a157838290600052602060002001805461031490610909565b80601f016020809104026020016040519081016040528092919081815260200182805461034090610909565b801561038d5780601f106103625761010080835404028352916020019161038d565b820191906000526020600020905b81548152906001019060200180831161037057829003601f168201915b5050505050815260200190600101906102f5565b5050505090509392505050565b6060600180548060200260200160405190810160405280929190818152602001828054801561041357602002820191906000526020600020905b815473ffffffffffffffffffffffffffffffffffffffff1681526001909101906020018083116103e8575b5050505050905090565b34811461043c5760405162461bcd60e51b815260040161017990610b0b565b600060028686604051610450929190610867565b90815260408051602092819003830190203360009081526002820184529182208054600181018255908352929091209092500161048e8486836109d7565b5060005461049d906001610b46565b600090815560018054808201825591527fb10e2d527612073b26eecdfd717e6a320cf44b4afac2b0732d9fcbe2b7fa0cf60180547fffffffffffffffffffffffff00000000000000000000000000000000000000001633179055505050505050565b60008083601f84011261051457610514600080fd5b50813567ffffffffffffffff81111561052f5761052f600080fd5b60208301915083600182028301111561054a5761054a600080fd5b9250929050565b805b811461055e57600080fd5b50565b803561056c81610551565b92915050565b60008060008060006060868803121561058d5761058d600080fd5b853567ffffffffffffffff8111156105a7576105a7600080fd5b6105b3888289016104ff565b9550955050602086013567ffffffffffffffff8111156105d5576105d5600080fd5b6105e1888289016104ff565b935093505060406105f488828901610561565b9150509295509295909350565b6000806020838503121561061757610617600080fd5b823567ffffffffffffffff81111561063157610631600080fd5b61063d858286016104ff565b92509250509250929050565b600073ffffffffffffffffffffffffffffffffffffffff821661056c565b61055381610649565b803561056c81610667565b60008060006040848603121561069357610693600080fd5b600061069f8686610670565b935050602084013567ffffffffffffffff8111156106bf576106bf600080fd5b6106cb868287016104ff565b92509250509250925092565b60005b838110156106f25781810151838201526020016106da565b50506000910152565b6000610705825190565b80845260208401935061071c8185602086016106d7565b601f01601f19169290920192915050565b600061073983836106fb565b9392505050565b600061074a825190565b808452602084019350836020820285016107648560200190565b8060005b858110156107995784840389528151610781858261072d565b94506020830160209a909a0199925050600101610768565b5091979650505050505050565b602080825281016107398184610740565b6107c081610649565b82525050565b60006107d283836107b7565b505060200190565b60006107e4825190565b80845260209384019383018060005b8381101561081857815161080788826107c6565b9750602083019250506001016107f3565b509495945050505050565b6020808252810161073981846107da565b806107c0565b6020810161056c8284610834565b82818337506000910152565b6000610861838584610848565b50500190565b6000610874828486610854565b949350505050565b6020808252810161056c81602e81527f50726f706f73616c20616c726561647920696e697469616c697a656420666f7260208201527f2074686520676976656e206b6579000000000000000000000000000000000000604082015260600190565b634e487b7160e01b600052604160045260246000fd5b634e487b7160e01b600052602260045260246000fd5b60028104600182168061091d57607f821691505b60208210810361092f5761092f6108f3565b50919050565b600061056c6109418381565b90565b61094d83610935565b81546008840282811b60001990911b908116901990911617825550505050565b600061097a818484610944565b505050565b8181101561099a5761099260008261096d565b60010161097f565b5050565b601f82111561097a576000818152602090206020601f850104810160208510156109c55750805b61028e6020601f86010483018261097f565b8267ffffffffffffffff8111156109f0576109f06108dd565b6109fa8254610909565b610a0582828561099e565b6000601f831160018114610a395760008415610a215750858201355b600019600886021c1981166002860217865550610a92565b600085815260208120601f198616915b82811015610a695788850135825560209485019460019092019101610a49565b86831015610a8557600019601f88166008021c19858a01351682555b6001600288020188555050505b50505050505050565b634e487b7160e01b600052601260045260246000fd5b634e487b7160e01b600052601160045260246000fd5b600082610ad657610ad6610a9b565b500490565b634e487b7160e01b600052603260045260246000fd5b60006000198203610b0457610b04610ab1565b5060010190565b6020808252810161056c81601c81527f596f75206e65656420746f206c6f636b206d6f726520746f6b656e7300000000602082015260400190565b8082018082111561056c5761056c610ab156fea2646970667358221220b84ffe82c7a28cb70e90277e57faf7b3cd808a837e93a455007bc70b41427c8464736f6c63430008110033",
  "linkReferences": {},
  "deployedLinkReferences": {}
}