{
  "_format": "hh-sol-artifact-1",
  "contractName": "Dao",
  "sourceName": "contracts/Dao.sol",
  "abi": [
    {
      "inputs": [],
      "stateMutability": "nonpayable",
      "type": "constructor"
    },
    {
      "inputs": [
        {
          "internalType": "string",
          "name": "_proposalID",
          "type": "string"
        },
        {
          "internalType": "string",
          "name": "_commitData",
          "type": "string"
        }
      ],
      "name": "commitData",
      "outputs": [],
      "stateMutability": "nonpayable",
      "type": "function"
    },
    {
      "inputs": [
        {
          "internalType": "string",
          "name": "_proposalId",
          "type": "string"
        },
        {
          "internalType": "string",
          "name": "_required",
          "type": "string"
        },
        {
          "internalType": "uint256",
          "name": "_maxMembers",
          "type": "uint256"
        },
        {
          "internalType": "uint256",
          "name": "_rewardAmount",
          "type": "uint256"
        }
      ],
      "name": "createProposal",
      "outputs": [],
      "stateMutability": "payable",
      "type": "function"
    },
    {
      "inputs": [],
      "name": "getAllMembers",
      "outputs": [
        {
          "internalType": "address[]",
          "name": "",
          "type": "address[]"
        }
      ],
      "stateMutability": "view",
      "type": "function"
    },
    {
      "inputs": [
        {
          "internalType": "address",
          "name": "_memberAddr",
          "type": "address"
        },
        {
          "internalType": "string",
          "name": "_proposalId",
          "type": "string"
        }
      ],
      "name": "getCommits",
      "outputs": [
        {
          "internalType": "string[]",
          "name": "",
          "type": "string[]"
        }
      ],
      "stateMutability": "view",
      "type": "function"
    },
    {
      "inputs": [
        {
          "internalType": "string",
          "name": "_proposalId",
          "type": "string"
        }
      ],
      "name": "getProposalDetails",
      "outputs": [
        {
          "internalType": "string",
          "name": "",
          "type": "string"
        },
        {
          "internalType": "uint256",
          "name": "",
          "type": "uint256"
        },
        {
          "internalType": "uint256",
          "name": "",
          "type": "uint256"
        },
        {
          "internalType": "uint256",
          "name": "",
          "type": "uint256"
        }
      ],
      "stateMutability": "view",
      "type": "function"
    },
    {
      "inputs": [],
      "name": "getTotalMembers",
      "outputs": [
        {
          "internalType": "uint256",
          "name": "",
          "type": "uint256"
        }
      ],
      "stateMutability": "view",
      "type": "function"
    },
    {
      "inputs": [
        {
          "internalType": "string",
          "name": "",
          "type": "string"
        }
      ],
      "name": "proposals",
      "outputs": [
        {
          "internalType": "string",
          "name": "requirement",
          "type": "string"
        },
        {
          "internalType": "uint256",
          "name": "maxMembers",
          "type": "uint256"
        },
        {
          "internalType": "uint256",
          "name": "currentCount",
          "type": "uint256"
        },
        {
          "internalType": "uint256",
          "name": "reward",
          "type": "uint256"
        },
        {
          "internalType": "enum Dao.Status",
          "name": "initialized",
          "type": "uint8"
        }
      ],
      "stateMutability": "view",
      "type": "function"
    },
    {
      "inputs": [
        {
          "internalType": "string",
          "name": "_proposalID",
          "type": "string"
        }
      ],
      "name": "rewardMembers",
      "outputs": [],
      "stateMutability": "nonpayable",
      "type": "function"
    }
  ],
  "bytecode": "0x60a060405234801561001057600080fd5b50336080526080516112f461003060003960006101b601526112f46000f3fe60806040526004361061007b5760003560e01c80637c0f6b351161004e5780637c0f6b351461010b5780638aa219821461012d5780638f1803051461015d578063ffa0d2a41461017a57600080fd5b8063101db5cf1461008057806329d2884a146100a257806349f74799146100c25780636b5e1766146100f8575b600080fd5b34801561008c57600080fd5b506100a061009b3660046108fe565b6101ab565b005b3480156100ae57600080fd5b506100a06100bd366004610946565b61034f565b3480156100ce57600080fd5b506100e26100dd3660046109f4565b61047c565b6040516100ef9190610b1f565b60405180910390f35b6100a0610106366004610b41565b610588565b34801561011757600080fd5b50610120610655565b6040516100ef9190610c4e565b34801561013957600080fd5b5061014d6101483660046108fe565b6106b7565b6040516100ef9493929190610c65565b34801561016957600080fd5b506000546040516100ef9190610ca8565b34801561018657600080fd5b5061019a610195366004610db9565b6107e7565b6040516100ef959493929190610e38565b336001600160a01b037f000000000000000000000000000000000000000000000000000000000000000016146101fc5760405162461bcd60e51b81526004016101f390610ec0565b60405180910390fd5b600160028383604051610210929190610ee3565b9081526040519081900360200190206005015460ff16600281111561023757610237610df4565b146102545760405162461bcd60e51b81526004016101f390610f4d565b600060028383604051610268929190610ee3565b908152602001604051809103902090506000600180549050826004015461028f9190610f89565b905060005b60015481101561030457600181815481106102b1576102b1610f9d565b60009182526020822001546040516001600160a01b039091169184156108fc02918591818181858888f193505050501580156102f1573d6000803e3d6000fd5b50806102fc81610fb3565b915050610294565b506002808585604051610318929190610ee3565b908152604051908190036020019020600501805460ff1916600183600281111561034457610344610df4565b021790555050505050565b600060028585604051610363929190610ee3565b9081526020016040518091039020905080600101548160020154111561039b5760405162461bcd60e51b81526004016101f390611001565b336000908152600382016020526040902054156103ca5760405162461bcd60e51b81526004016101f390611045565b3360009081526003820160209081526040822080546001810182559083529120016103f6838583611139565b5060028101546104079060016111fd565b600282015560005461041a9060016111fd565b600090815560018054808201825591527fb10e2d527612073b26eecdfd717e6a320cf44b4afac2b0732d9fcbe2b7fa0cf60180547fffffffffffffffffffffffff000000000000000000000000000000000000000016331790555b5050505050565b606060028383604051610490929190610ee3565b9081526040805191829003602090810183206001600160a01b038816600090815260039091018252828120805480840286018401909452838552929184015b8282101561057b5783829060005260206000200180546104ee9061106b565b80601f016020809104026020016040519081016040528092919081815260200182805461051a9061106b565b80156105675780601f1061053c57610100808354040283529160200191610567565b820191906000526020600020905b81548152906001019060200180831161054a57829003601f168201915b5050505050815260200190600101906104cf565b5050505090509392505050565b60006002878760405161059c929190610ee3565b9081526040519081900360200190206005015460ff1660028111156105c3576105c3610df4565b146105e05760405162461bcd60e51b81526004016101f39061126a565b3481146105ff5760405162461bcd60e51b81526004016101f3906112ae565b600060028787604051610613929190610ee3565b908152604051908190036020019020905080610630858783611139565b50600180820184905560058201805460ff191682800217905550600401555050505050565b606060018054806020026020016040519081016040528092919081815260200182805480156106ad57602002820191906000526020600020905b81546001600160a01b0316815260019091019060200180831161068f575b5050505050905090565b60606000806000600286866040516106d0929190610ee3565b908152604051908190036020018120906002906106f09089908990610ee3565b90815260200160405180910390206001015460028888604051610714929190610ee3565b90815260200160405180910390206002015460028989604051610738929190610ee3565b9081526020016040518091039020600401548380546107569061106b565b80601f01602080910402602001604051908101604052809291908181526020018280546107829061106b565b80156107cf5780601f106107a4576101008083540402835291602001916107cf565b820191906000526020600020905b8154815290600101906020018083116107b257829003601f168201915b50505050509350935093509350935092959194509250565b805160208183018101805160028252928201919093012091528054819061080d9061106b565b80601f01602080910402602001604051908101604052809291908181526020018280546108399061106b565b80156108865780601f1061085b57610100808354040283529160200191610886565b820191906000526020600020905b81548152906001019060200180831161086957829003601f168201915b505050506001830154600284015460048501546005909501549394919390925060ff1685565b60008083601f8401126108c1576108c1600080fd5b50813567ffffffffffffffff8111156108dc576108dc600080fd5b6020830191508360018202830111156108f7576108f7600080fd5b9250929050565b6000806020838503121561091457610914600080fd5b823567ffffffffffffffff81111561092e5761092e600080fd5b61093a858286016108ac565b92509250509250929050565b6000806000806040858703121561095f5761095f600080fd5b843567ffffffffffffffff81111561097957610979600080fd5b610985878288016108ac565b9450945050602085013567ffffffffffffffff8111156109a7576109a7600080fd5b6109b3878288016108ac565b95989497509550505050565b60006001600160a01b0382165b92915050565b6109db816109bf565b81146109e657600080fd5b50565b80356109cc816109d2565b600080600060408486031215610a0c57610a0c600080fd5b6000610a1886866109e9565b935050602084013567ffffffffffffffff811115610a3857610a38600080fd5b610a44868287016108ac565b92509250509250925092565b60005b83811015610a6b578181015183820152602001610a53565b50506000910152565b6000610a7e825190565b808452602084019350610a95818560208601610a50565b601f01601f19169290920192915050565b6000610ab28383610a74565b9392505050565b6000610ac3825190565b80845260208401935083602082028501610add8560200190565b8060005b85811015610b125784840389528151610afa8582610aa6565b94506020830160209a909a0199925050600101610ae1565b5091979650505050505050565b60208082528101610ab28184610ab9565b806109db565b80356109cc81610b30565b60008060008060008060808789031215610b5d57610b5d600080fd5b863567ffffffffffffffff811115610b7757610b77600080fd5b610b8389828a016108ac565b9650965050602087013567ffffffffffffffff811115610ba557610ba5600080fd5b610bb189828a016108ac565b94509450506040610bc489828a01610b36565b9250506060610bd589828a01610b36565b9150509295509295509295565b610beb816109bf565b82525050565b6000610bfd8383610be2565b505060200190565b6000610c0f825190565b80845260209384019383018060005b83811015610c43578151610c328882610bf1565b975060208301925050600101610c1e565b509495945050505050565b60208082528101610ab28184610c05565b80610beb565b60808082528101610c768187610a74565b9050610c856020830186610c5f565b610c926040830185610c5f565b610c9f6060830184610c5f565b95945050505050565b602081016109cc8284610c5f565b634e487b7160e01b600052604160045260246000fd5b601f19601f830116810181811067ffffffffffffffff82111715610cf257610cf2610cb6565b6040525050565b6000610d0460405190565b9050610d108282610ccc565b919050565b600067ffffffffffffffff821115610d2f57610d2f610cb6565b601f19601f83011660200192915050565b82818337506000910152565b6000610d5f610d5a84610d15565b610cf9565b905082815260208101848484011115610d7a57610d7a600080fd5b610d85848285610d40565b509392505050565b600082601f830112610da157610da1600080fd5b8135610db1848260208601610d4c565b949350505050565b600060208284031215610dce57610dce600080fd5b813567ffffffffffffffff811115610de857610de8600080fd5b610db184828501610d8d565b634e487b7160e01b600052602160045260246000fd5b600381106109e6576109e6610df4565b80610d1081610e0a565b60006109cc82610e1a565b610beb81610e24565b60a08082528101610e498188610a74565b9050610e586020830187610c5f565b610e656040830186610c5f565b610e726060830185610c5f565b610e7f6080830184610e2f565b9695505050505050565b601681526000602082017f4f6e6c79206f776e65722063616e20646f207468697300000000000000000000815291505b5060200190565b602080825281016109cc81610e89565b6000610edd838584610d40565b50500190565b6000610db1828486610ed0565b602b81526000602082017f50726f706f73616c20616c726561647920526577617264656420666f7220746881527f6520676976656e206b6579000000000000000000000000000000000000000000602082015291505b5060400190565b602080825281016109cc81610ef0565b634e487b7160e01b600052601260045260246000fd5b634e487b7160e01b600052601160045260246000fd5b600082610f9857610f98610f5d565b500490565b634e487b7160e01b600052603260045260246000fd5b60006000198203610fc657610fc6610f73565b5060010190565b601481526000602082017f4d6178206361706163697479205265616368656400000000000000000000000081529150610eb9565b602080825281016109cc81610fcd565b601381526000602082017f416c726561647920436f6e74726962757465640000000000000000000000000081529150610eb9565b602080825281016109cc81611011565b634e487b7160e01b600052602260045260246000fd5b60028104600182168061107f57607f821691505b60208210810361109157611091611055565b50919050565b60006109cc6110a38381565b90565b6110af83611097565b81546008840282811b60001990911b908116901990911617825550505050565b60006110dc8184846110a6565b505050565b818110156110fc576110f46000826110cf565b6001016110e1565b5050565b601f8211156110dc576000818152602090206020601f850104810160208510156111275750805b6104756020601f8601048301826110e1565b8267ffffffffffffffff81111561115257611152610cb6565b61115c825461106b565b611167828285611100565b6000601f83116001811461119b57600084156111835750858201355b600019600886021c19811660028602178655506111f4565b600085815260208120601f198616915b828110156111cb57888501358255602094850194600190920191016111ab565b868310156111e757600019601f88166008021c19858a01351682555b6001600288020188555050505b50505050505050565b808201808211156109cc576109cc610f73565b602e81526000602082017f50726f706f73616c20616c726561647920696e697469616c697a656420666f7281527f2074686520676976656e206b657900000000000000000000000000000000000060208201529150610f46565b602080825281016109cc81611210565b601c81526000602082017f596f75206e65656420746f206c6f636b206d6f726520746f6b656e730000000081529150610eb9565b602080825281016109cc8161127a56fea26469706673582212208162495d22bff756f11cb1ef80d71651c128f9740000f95b3d09fafdb66bb00c64736f6c63430008110033",
  "linkReferences": {},
  "deployedLinkReferences": {}
}